:020000040100F9
:1000000048A00020210500016D3A00010105000112
:10001000C13B0001D13B0001E13B000100000000B9
:10002000000000000000000000000000F13B0001A3
:10003000013C000100000000113C0001213C0001D6
:10004000950500019505000195050001693C000139
:1000500095050001F50E00009505000195050001CC
:100060009505000195050001950500019505000124
:100070009505000195050001950500019505000114
:1000800095050001950500012B1E0000AF1F000023
:10009000BB1F0000C71F000095050001950500016A
:1000A0009505000195050001773B0000BF3C00006D
:1000B000C33C0000C73C0000CB3C0000CF3C00002C
:1000C00095050001950500019505000195050001C4
:1000D00095050001950500019505000195050001B4
:1000E00095050001950500019505000195050001A4
:1000F00095050001B70D000095050001950500016B
:100100009505000195050001950500019505000183
:100110009505000195050001950500019505000173
:100120009505000195050001950500019505000163
:100130009505000195050001950500019505000153
:10014000EB1300001915000095050001950500014D
:100150009505000195050001950500019505000133
:100160009505000195050001950500019505000123
:100170009505000195050001950500019505000113
:100180009505000195050001950500019505000103
:10019000950500019505000195050001053A00004F
:1001A000FF390000F93900000B3A0000113A000055
:1001B00095050001233A00001D3A0000173A00009F
:1001C000293A00002F3A000095050001950500012D
:1001D00095050001950500019505000195050001B3
:1001E00095050001413A00003B3A0000353A000015
:1001F000473A00004D3A00009505000195050001C1
:100200009505000195050001950500019505000182
:100210009505000195050001950500019505000172
:100220009505000195050001950500019505000162
:100230009505000195050001950500019505000152
:100240009505000195050001950500019505000142
:100250006117000095050001950500019505000155
:100260009505000195050001950500019505000122
:100270009505000195050001950500019505000112
:100280009505000195050001950500019505000102
:1002900095050001950500019505000195050001F2
:100500001EF0040F0CBFEFF30880EFF30980714673
:10051000004A10477D3A0001D4D4D4D4D4D4D4D4E2
:1005200072B64FF000004FF000014FF000024FF0A4
:1005300000034FF000044FF000054FF000064FF0AD
:1005400000070F480F4901600F4880F308880F4AE1
:100550000F4C4FF0CD3301E01360121DA242FBD3CC
:1005600000E001E003F096FB03F0E0FB62B600F070
:100570002FFC00F023F800BF00BF00BF00BF00BF8A
:1005800008ED00E00000000048A0002048600020C6
:1005900048A0002003F04CFB034613F8012B002A6F
:1005A000FBD1181A0138704740B584B002AE0096EE
:1005B00003F014F9029A039B04B040BD01464DF2CA
:1005C0009F50C0F2001000F02AF8FEE710B582B08C
:1005D0000446002001900A208DF8030001A90120A3
:1005E00000F41ED00198A8B12046FFF7D5FF82B2D3
:1005F0000120214603F02AFA2046FFF7CDFF2044D0
:1006000010F8010C0D2805D10DF103010120012284
:1006100003F01CFA2046FFF7BFFF02B010BD83B005
:10062000B0B5ADF5017D01ACCDE98512014685AAD5
:1006300020468793009201F0EFFC05462046FFF725
:10064000C5FF28460DF5017DBDE8B04003B07047F9
:1006500031EE011A9FED0A2A0429016080ED010A9A
:1006600021EE021AC0ED020A80ED031A88BF70471E
:100670004DF6C802C0F2001252F821100161704715
:10068000DA0F4940BEEE002A05EE101AB6EE004B16
:100690000198B0EE083BB1EEC36B20EE022AB1EE3A
:1006A000C33B26EE044BBEEE006BB7EEE07AB7EE2E
:1006B000C22A21EE051A23EE063BB0EE425B30EE75
:1006C000010AA4EE075BB7EEC14AA3EE072B35EE95
:1006D000043B32EE042B04EE103AB7EEC31BB7EE28
:1006E000C22B80EE040A81EE041A82EE042ABDEECB
:1006F000C00ABDEEC11ABDEEC22A10EE101A01806A
:1007000011EE101A418012EE101A818070474007D6
:1007100058BF704740F2B0110120C2F210011322FD
:1007200003F099B9400758BF704740F2000100201C
:10073000C2F20001122203F08EB940F2AC1040F276
:10074000C411C2F21000C2F210010268013202604C
:1007500000F000B8B0B540F2EA120C46C2F2100246
:1007600009881388994202D000230360118081B167
:1007700040F2E8150268C2F210058A42287816D9BC
:10078000B0B17220012101F44ED4002028702080E5
:10079000B0BD40F2E814C2F210042078012807D15D
:1007A0007220012101F43FD400202070B0BD00B1BF
:1007B000B0BD7220002101F436D401202870B0BDF4
:1007C00080B50020012108F099FA0120012108F0EC
:1007D00095FA02200121BDE8804008F08FBA80B56B
:1007E0000320012108F08AFA04200121BDE880409D
:1007F00008F084BA40F2F0100121C2F2100001703A
:1008000070470068B0F5B06F13DC40F201229042EF
:100810003FD040F20222904260D040F20322904248
:1008200040F0AF8040F2F410C2F21000583001F0F6
:10083000A1BA40F28152904231D040F282529042AD
:1008400053D040F28352904240F09B800868027877
:100850004B2A68D0432A40F094804278642A40F0C2
:1008600090808278602A40F08C80C278002A40F024
:10087000888040F213020079C2F210029075086875
:10088000407950750868807910750868C079D0740F
:10089000704740F2F410C2F2100001F06BBA086821
:1008A00002784B2A53D0432A6BD14278642A68D10C
:1008B0008278602A65D1C278002A62D140F21302A0
:1008C0000079C2F21002907208684079507208688C
:1008D000807910720868C079D071704740F2F410C6
:1008E000C2F210002C3001F045BA086802784B2A99
:1008F0003FD0432A45D14278642A42D18278602A87
:100900003FD1C278EABB40F213020079C2F2100272
:10091000107408684079D07308688079907308680B
:10092000C079507370474278782A2AD18278602A39
:1009300027D1C278002A18BF704740F2130200790D
:10094000C2F21002107608684079D075704742787C
:10095000782A16D18278602A13D1C2788AB940F2F7
:1009600013020079C2F21002107308684079D07245
:1009700070474278782A04D18278602A01D1C278FF
:1009800002B1704740F213020079C2F21002907473
:10099000086840795074704770477047704780B559
:1009A000DDF810C021F0404E6CF39E7E039961F398
:1009B000DF7EC0F800E0828002998371816080BD93
:1009C00010B540F2000040F2C611C2F20000C2F2BF
:1009D000100102780479437890F802C090F803E09F
:1009E00063F30A220A80DA0843796CF34A124A80D8
:1009F0004FEA8E0E4EEA9C1290F807E064F38A22CA
:100A00008A806208847963F3CA12CA80C3F3011230
:100A10008A72427A4FEA931C037A44EA0E248C814C
:100A2000047B43EA0222C37ACA81827A8C74447CB2
:100A300042EA03220A82C27B81F80BC090F80DC003
:100A4000837B007C81F813C043EA02228A8240EA59
:100A50000420088110BD10B5FFF7B2FF40F2C610A8
:100A6000C2F21000C17A012918D140F2782340F275
:100A70008021C2F21003C2F2100140F2014C1A8828
:100A80000A805A884A8042889B8862458B8040F65B
:100A9000B833CB800B8148D90A224CE040F2B01029
:100AA000C2F21000017890F805E04278837881F076
:100AB000550182F0AA02114383F03803C27819432A
:100AC000037908BF0C2A04D1082B08BFBEF1700FB0
:100AD00055D0023AB1FA81F1B2FA82F249095209CB
:100AE0000A40012A04D1092B08BFBEF1700F33D090
:100AF000A3F1080190F806C0B1FA81F1490911404B
:100B0000012906D1BEF1600F08BFBCF1000F00F053
:100B1000A380D91FB1FA81F149091140012908BF09
:100B2000BEF1600F00F0AB8010BD40F2FE339A4280
:100B300004D84FF6F6724B891A444A81008940F274
:100B40009461884240F0AF8040F2C41040F6B83162
:100B5000C2F210000180A6E000210022435C0131B6
:100B600008291A44FAD1017AD2B29142DCD1C08864
:100B700040F2C411C2F2100100BA000C92E0002150
:100B80000022435C013112291A44FAD1817CD2B28D
:100B90009142C9D1817A40F2802EC27AC2F2100EFF
:100BA000437A847942EA01224EF6900CC1F3C011D7
:100BB000CFF6FF7C1144027A09B24908AEF8001062
:100BC00043EA0223C2F3C0121A44C37912B2510895
:100BD000AEF8021043EA0421037BC4F3C0121144AF
:100BE000C28909B24908AEF8041011BA5A42437BCF
:100BF000008A090CAEF80610C3EB02210CF5FA636B
:100C000000BAAEF80810000CAEF80A0000203EF959
:100C10001010B1F57A6F04DD4FF47A612EF81010E0
:100C200004E099421946B8BF2EF81010013003288D
:100C3000EDD100200EEB400341F27071B3F90620B4
:100C40008A4201DDD98003E062456146B8BFD980A0
:100C500001300228EED126E000210022435C013160
:100C600008291A44FAD1017AD2B291427FF45CAFDA
:100C700040F22E01C079C2F21001488013E0002139
:100C80000022435C013108291A44FAD1017AD2B218
:100C9000914218BF10BDC07940F22E01C2F210017E
:100CA00040EA0C20088040F2B0101321C2F210007C
:100CB00002F061FD10BDD4D4B0B52DED068B9FEDD3
:100CC0001F8AB3EE040AB0EE481A40F2B020C2F216
:100CD0001000DFED190A03214FF47A720A2301F0A4
:100CE00081F9B1EE0E0A40F21C34F0EE480AB0EE83
:100CF000481AC2F21004032142F210720023204667
:100D0000002501F06FF9B7EE089A9FED0DAAB0EE3D
:100D1000490AF0EE4A0AB0EE481A6C352819032148
:100D200044F6206244F6206301F05CF9D82DEED140
:100D3000BDEC068BB0BD00BF0AD7233C000000000D
:100D4000CDCCCC3D10B5002007F04AFC012007F0C7
:100D500047FC022007F044FC032007F041FC04207C
:100D600007F03EFC40F212040020C2F200042146CB
:100D700007F0BAFDA11C012007F0B6FD211D0220DD
:100D800007F0B2FDA11D032007F0AEFD04F108013C
:100D9000042007F0A9FD0120012107F0AFFF00208A
:100DA00007F064FC0320BDE8104007F05FBC80B58D
:100DB00000200121012209F070FD01200121012202
:100DC00009F06BFD00200021BDE8804009F0B3BDB3
:100DD00084B0002000268DF80F60CDE9016609F08F
:100DE00035FA002009F0BBFA09F0DAFA0CF00EF837
:100DF000002008F091FC4EF63000C0F2001009F01F
:100E0000B3F8002009F012F9002009F043FC00209B
:100E10000CF055F800200BF078F940F2B0140120E6
:100E2000C2F210041322214602F015FE40F2000522
:100E30000020C2F200051222294602F00CFE01A990
:100E4000002004F0E3F87220012101F4ECD000202E
:100E50000AF0BCFF002005F089FE0020782105F093
:100E6000A8FDFFF76FFFFFF727FF40F2DC10C2F28B
:100E70001000C0E90066866000F0E2FB00F0E8F9CF
:100E8000FFF795FF1321204602F075FC122128463A
:100E900002F071FC40F2EC109FED600AC2F210000B
:100EA000DFED5F0A9FED5F1A04210068FFF7D0FBBA
:100EB0004DF683610198C4F21B31A0FB01014DF294
:100EC0000340890CC0F20010FFF7A9FB4DF600703B
:100ED0004CF6CD44C0F2001049F699154EF6EF6875
:100EE00040F22E0940F2120A40F200060768CCF6E2
:100EF000CC44C1F69915CEF6EE68C2F21009C2F2E2
:100F0000000AC2F2100600204FF0000B01300190E1
:100F1000012007F006FBB86802A901F4E9D03920E6
:100F20000DF10F0101F455D09DF80F0001071AD003
:100F3000012829D10198A0FB0412910901EB81013C
:100F4000A0EB011000BBBBF1010F1DD100F024F993
:100F500000F0C6F81D2004F0ACF81E2004F0A9F83B
:100F60004FF0000B10E000F05FF840F2802100200D
:100F7000C2F21001C88008811D2004F090F81E20E4
:100F800004F08DF84FF0010B019800FB04F14FEADB
:100F90007101A94204D8FFF75EFD00F07CFE0198C4
:100FA00000FB08F1B1F1113F06D8002007F05EFB0D
:100FB000032007F05BFB0198B9F80010B0FBF1F2D9
:100FC00002FB11010029A1D1BAF80000BAF8021001
:100FD0003072020AF271BAF80420080AB172110ADA
:100FE0007072BAF80600F172BAF808103273020A89
:100FF000B073080AF07302983174707400200021F5
:101000007273325C013012281144FAD1B17401209C
:101010001322314602F024FD019877E73333333E43
:10102000C520B03D5839B43C2DE9F04F87B04DF69E
:1010300078604FF6FF77C0F2001040F2F01B40F2EC
:10104000247AC0F20F0746694FF001090025C2F269
:10105000100BC2F2000A40F23A0004ACC2F21000D7
:1010600009F5C061CDE9000500220823204602955C
:10107000FFF795FC40F28C212046C2F210010D468C
:1010800090E81C0003201CC501F499D1E8B90020A8
:10109000002F48BF3846A0F101089BF8000058B95E
:1010A000DAF8000001693068603101F45CD2002F89
:1010B000A7F10107F1DC474609F101090025B9F163
:1010C000040F8BF80050C6D107E04DF27340C0F218
:1010D0000010FFF77BFA04F006FD07B0BDE8F08FC3
:1010E0002DE9F04F87B04DF678604FF6FF77C0F2EC
:1010F000001040F2F01B40F2247AC0F20F0746695C
:101100004FF001090025C2F2100BC2F2000A40F2B2
:101110006A0004ACC2F2100009F5C061CDE9000517
:101120000022082320460295FFF739FC40F28C216B
:101130002046C2F210010D4690E81C0003201CC599
:1011400001F43DD1E8B90020002F48BF3846A0F196
:1011500001089BF8000058B9DAF80000016930680E
:10116000603101F400D2002FA7F10107F1DC4746FE
:1011700009F101090025B9F1040F8BF80050C6D11F
:1011800007E04DF25270C0F20010FFF71FFA04F0B2
:10119000AAFC07B0BDE8F08F2DE9F04F87B04DF6FF
:1011A00078604FF6FF77C0F2001040F2F01B40F27B
:1011B000247AC0F20F0746694FF001090025C2F2F8
:1011C000100BC2F2000A40F2320004ACC2F210006E
:1011D00009F5C061CDE900050022082320460295EB
:1011E000FFF7DDFB40F28C212046C2F210010D46D4
:1011F00090E81C0003201CC501F4E1D0E8B90020F0
:10120000002F48BF3846A0F101089BF8000058B9EC
:10121000DAF8000001693068603101F4A4D1002FD0
:10122000A7F10107F1DC474609F101090025B9F1F1
:10123000040F8BF80050C6D107E04DF25270C0F297
:101240000010FFF7C3F904F04EFC07B0BDE8F08FC3
:101250002DE9F04F89B04DF678604FF6FF79C0F276
:10126000001040F2F01B40F22478C0F20F094469EC
:1012700001204FF0000A06ADC2F2100BC2F20008C6
:10128000049000F5C06140F232000022C2F210006A
:101290000823CDE9000A2846CDF808A00591FFF7FC
:1012A0007EFB40F28C212846C2F210010F4690E8E6
:1012B0004C0003204CC701F482D0002840F09281FA
:1012C0000020B9F1000F48BF4846A0F1010A9BF881
:1012D000000060B9D8F8000001692068603101F4AD
:1012E00042D1B9F1000FA9F10109F0DCD14640F279
:1012F0003A004FF0000A8BF800A0C2F21000CDE9CE
:10130000000A0022082328460599CDF808A0FFF717
:1013100046FB40F28C212846C2F210010F4690E8AD
:101320004C0003204CC701F44AD0002840F05F81F4
:101330000020B9F1000F48BF4846461E9BF8000048
:1013400060B9D8F8000001692068603101F40BD160
:10135000B9F1000FA9F10109F0DCB14640F24200F9
:101360008BF800A0C2F210000022CDE9000A082389
:1013700028460599CDF808A0FFF711FB40F28C2113
:101380002846C2F210010F4690E84C0003204CC7DB
:1013900001F415D0002840F02F810020B9F1000F92
:1013A00048BF4846461E9BF8000060B9D8F80000C8
:1013B00001692068603101F4D6D0B9F1000FA9F1BC
:1013C0000109F0DCB14640F24A008BF800A0C2F2FD
:1013D00010000022CDE9000A082328460599CDF81F
:1013E00008A0FFF7DCFA40F28C212846C2F2100177
:1013F0000F4690E84C0003204CC700F4E0D70028CB
:1014000040F0FF800020B9F1000F48BF4846461E5B
:101410009BF8000060B9D8F80000016920686031CD
:1014200001F4A1D0B9F1000FA9F10109F0DCB14636
:1014300040F252008BF800A0C2F210000022CDE969
:10144000000A082328460599CDF808A0FFF7A7FA57
:1014500040F28C212846C2F210010F4690E84C0061
:1014600003204CC700F4ABD7002840F0CF80002009
:10147000B9F1000F48BF4846461E9BF8000060B90E
:10148000D8F8000001692068603101F46CD0B9F12E
:10149000000FA9F10109F0DCB14640F25A008BF8C7
:1014A00000A0C2F210000022CDE9000A082328465D
:1014B0000599CDF808A0FFF772FA40F28C21284672
:1014C000C2F210010F4690E84C0003204CC700F414
:1014D00076D7002840F09F800020B9F1000F48BF68
:1014E0004846461E9BF8000060B9D8F80000016924
:1014F0002068603101F437D0B9F1000FA9F101097A
:10150000F0DCB14640F262008BF800A0C2F210009D
:101510000022CDE9000A082328460599CDF808A045
:10152000FFF73DFA40F28C212846C2F210010F4627
:1015300090E84C0003204CC700F441D700286FD13D
:101540000020B9F1000F48BF4846461E9BF8000036
:1015500060B9D8F8000001692068603101F403D057
:10156000B9F1000FA9F10109F0DCB14640F26A00BF
:101570008BF800A0C2F210000022CDE9000A082377
:1015800028460599CDF808A0FFF709FA40F28C210A
:101590002846C2F210010E4690E88C0003208CC64B
:1015A00000F40DD7002840D10020B9F1000F48BF4A
:1015B0004846461E9BF8000060B9D8F80000016953
:1015C0002068603100F4CFD7B9F1000FA9F101090B
:1015D000F0DCB14604988BF800A0013004287FF4B9
:1015E0004FAE2AE04DF2E860C0F2001021E04DF26B
:1015F0007340C0F200101CE04DF2E340C0F2001056
:1016000017E04DF27150C0F2001012E04DF2585048
:10161000C0F200100DE04DF29370C0F2001008E02F
:101620004DF24740C0F2001003E04DF25270C0F29C
:101630000010FEF7CBFF04F056FA09B0BDE8F08FBA
:101640002DE9F04F89B04DF678604FF6FF79C0F282
:10165000001040F2F01B40F22478C0F20F094469F8
:1016600001204FF0000A06ADC2F2100BC2F20008D2
:10167000049000F5C06140F232000022C2F2100076
:101680000823CDE9000A2846CDF808A00591FFF708
:1016900086F940F28C212846C2F210010F4690E8EC
:1016A0004C0003204CC700F48AD6002840F0AA81E1
:1016B0000020B9F1000F48BF4846A0F1010A9BF88D
:1016C000000060B9D8F8000001692068603100F4BA
:1016D0004AD7B9F1000FA9F10109F0DCD146642025
:1016E0004FF0000A8BF800A006F01BFF40F23A0012
:1016F0000022C2F210000823CDE9000A284605990D
:10170000CDF808A0FFF74BF940F28C212846C2F231
:1017100010010F4690E84C0003204CC700F44FD650
:10172000002840F074810020B9F1000F48BF4846FE
:10173000461E9BF8000060B9D8F8000001692068D7
:10174000603100F410D7B9F1000FA9F10109F0DC04
:10175000B14664208BF800A006F0E3FE40F24200A0
:101760000022C2F210000823CDE9000A284605999C
:10177000CDF808A0FFF713F940F28C212846C2F2F9
:1017800010010F4690E84C0003204CC700F417D618
:10179000002840F041810020B9F1000F48BF4846C1
:1017A000461E9BF8000060B9D8F800000169206867
:1017B000603100F4D8D6B9F1000FA9F10109F0DCCD
:1017C000B14664208BF800A006F0ABFE40F24A0060
:1017D0000022C2F210000823CDE9000A284605992C
:1017E000CDF808A0FFF7DBF840F28C212846C2F2C2
:1017F00010010F4690E84C0003204CC700F4DFD5E1
:10180000002840F00E810020B9F1000F48BF484683
:10181000461E9BF8000060B9D8F8000001692068F6
:10182000603100F4A0D6B9F1000FA9F10109F0DC94
:10183000B14664208BF800A006F073FE40F252001F
:101840000022C2F210000823CDE9000A28460599BB
:10185000CDF808A0FFF7A3F840F28C212846C2F289
:1018600010010F4690E84C0003204CC700F4A7D5A8
:10187000002840F0DB800020B9F1000F48BF484647
:10188000461E9BF8000060B9D8F800000169206886
:10189000603100F468D6B9F1000FA9F10109F0DC5C
:1018A000B14664208BF800A006F03BFE40F25A00DF
:1018B0000022C2F210000823CDE9000A284605994B
:1018C000CDF808A0FFF76BF840F28C212846C2F251
:1018D00010010F4690E84C0003204CC700F46FD570
:1018E000002840F0A8800020B9F1000F48BF48460A
:1018F000461E9BF8000060B9D8F800000169206816
:10190000603100F430D6B9F1000FA9F10109F0DC23
:10191000B14664208BF800A006F003FE40F262009E
:101920000022C2F210000823CDE9000A28460599DA
:10193000CDF808A0FFF733F840F28C212846C2F218
:1019400010010F4690E84C0003204CC700F437D537
:10195000002875D10020B9F1000F48BF4846461E47
:101960009BF8000060B9D8F8000001692068603178
:1019700000F4F9D5B9F1000FA9F10109F0DCB14685
:1019800064208BF800A006F0CCFD40F26A00002233
:10199000C2F210000823CDE9000A28460599CDF8C7
:1019A00008A0FEF7FCFF40F28C212846C2F210018D
:1019B0000E4690E88C0003208CC600F400D5002869
:1019C00043D10020B9F1000F48BF4846461E9BF89E
:1019D000000060B9D8F8000001692068603100F4A7
:1019E000C2D5B9F1000FA9F10109F0DCB1466420BC
:1019F0008BF800A006F095FD0498013004287FF4D0
:101A000037AE2AE04DF2E860C0F2001021E04DF25E
:101A10007340C0F200101CE04DF2E340C0F2001031
:101A200017E04DF27150C0F2001012E04DF2585024
:101A3000C0F200100DE04DF29370C0F2001008E00B
:101A40004DF24740C0F2001003E04DF25270C0F278
:101A50000010FEF7BBFD04F046F809B0BDE8F08FBA
:101A60002DE9F04F87B040F2EC1040F2DC14C2F2E6
:101A70001000C2F2100440F278260768C2F2100685
:101A800094EC030A97E80F003F69CDE90076FEF772
:101A9000F9FD40F2C6109FED562AC2F210009FEDEC
:101AA000554A9FED555A40F28C2B818840F2F01830
:101AB000C2880088A1F58063A1F2FE31A2F580679B
:101AC00000EE103A01EE107AA0F5806303EE103AB2
:101AD000A2F2FE32B8EEC00A0529B8EEC11AA0F291
:101AE000FE30B8EEC33A40F2247920EE020A4FF0FD
:101AF000010721EE021A9FED412A23EE022A9FEDF3
:101B0000403A80EE040A4FF0000A81EE041AC2F255
:101B1000100B38BFB0EE450A052A84ED000A38BF25
:101B2000B0EE451A05284DF6786082EE032AC0F221
:101B300000109FED340A84ED011A38BFB0EE402A40
:101B400084ED022A40F24A044669C2F21004C2F24D
:101B50001008C2F2000940F2802048F68902C2F261
:101B60001000C8F6880200EB470004AD0823CDF84A
:101B700008A030F8020CCDE9004A410451FB02F103
:101B8000002201EB4040411101EBD0702071010EA9
:101B9000E171010CA171010A617107F5C06128466C
:101BA000FEF7FDFE2946584691E82C002CC0032084
:101BB000594600F404D480B998F8000038B9D9F82F
:101BC000000001693068603100F4CDD4F4E70137DA
:101BD00088F800A0042FBED107E04DF2AC70C0F22F
:101BE0000010FEF7F3FC03F07EFF07B0BDE8F08FB6
:101BF0000080BB4400001645000000000080BBC40C
:101C00000000484400000080B0B586B0D0F804C0A1
:101C10000C0A03AD8CF814404FF0000C4468617559
:101C2000140A41688C754168CA751A0A41680A76B7
:101C3000002241684B760823416881F81AC0416848
:101C400081F81BC04FF400714068CDF808C0143013
:101C5000CDE9000C2846FEF7A2FE40F29821C2F220
:101C60001001084695E81C001CC0042000F4A7D30E
:101C700030B14DF23240C0F20010FEF7A7FC08E090
:101C800040F2F010C2F2100001780029FCD00021CF
:101C9000017006B0B0BD2DE9F04140F2F41548F2F4
:101CA0001F51C2F21005C5F2EB1140F2802640F23E
:101CB000B0246869C2F2100650FB01F0C2F21004B1
:101CC000B6F90A20411101EBD07001EE102A00EEA6
:101CD000100A2046F8EEC10AB8EEC00A00F07AF801
:101CE000B5F9000040F21C38C2F21008D4ED0F0A1A
:101CF00000EE100A4046B8EEC00A00F06BF805F19D
:101D00002C0708F16C05002406EB440037F92C1B66
:101D1000B0F9060000EE101A01EE100A2846B8EEDF
:101D2000C00AF8EEC10A00F055F830890134022CDF
:101D300005F16C05C0F100003081E5D198ED0F0A86
:101D400098ED2A1A98ED452ABDEEC00ABDEEC11ADB
:101D500040F2A420BDEEC22AC2F2100010EE101A0A
:101D600011EE102A12EE103AFFF74EFFBDE8F041D7
:101D7000FFF776BE80B5B0F808C00B68A0F80AC0BF
:101D800019785A7842EA0121018193F802E0DA7861
:101D900089B242EA0E224280028093F804E05A7926
:101DA00042EA0E228280A1EB0C029B79B2F5805FA1
:101DB000837102DD0269013A04E012F5805F026975
:101DC00001DA01320261838901EB4231C91A4161B2
:101DD00080BDD4D430EEC01A90ED143AB5EE403A3E
:101DE00080ED080AF1EE10FAB1EE412AC0ED050AC5
:101DF00080ED0B1A0AD0B5EE401AF1EE10FA31FE62
:101E0000024AB4EE434AF1EE10FA11DC90ED153AB5
:101E1000B5EE403AF1EE10FA0DD0B5EE401AF1EE03
:101E200010FA31FE022AB4EE432AF1EE10FA02D57E
:101E30009FED6B0A7047816D032965D0042940F03E
:101E4000B880B8EE004A90ED0A2AB0EE416A31EE51
:101E5000425A90ED013AD0ED021AA2EE046A90EDDA
:101E6000184A21EE033AB8EE447A90ED004A24EE87
:101E7000054A90ED095A80ED0C4A36EE055A80ED80
:101E80000D3AB4EE473AF1EE10FA21EE855A37FEDC
:101E9000036A80ED0E5AB1EE477A04DCB4EE476A6D
:101EA000F1EE10FA07D5B4EE467AF1EE10FA37FEED
:101EB000063A80ED0D3A34EE033A90ED174A35EECE
:101EC000036A90ED133AB8EE445A80ED116A33EE8E
:101ED000063A80ED123AB4EE453AF1EE10FA35FECC
:101EE000034AB1EE455A04DCB4EE454AF1EE10FA6D
:101EF00007D5B4EE445AF1EE10FA35FE043A80EDFF
:101F0000123A80ED133A56E090ED012AD0ED021A14
:101F100090ED0D3AA2EE013A90ED182AB8EE425A31
:101F200090ED002A21EE024A90ED0A2A71EE422A33
:101F300080ED0C4AB1EE457A80ED0D3AB4EE453AAB
:101F4000F1EE10FA35FE036A21EEA25A80ED0E5A28
:101F500004DCB4EE476AF1EE10FA07D5B4EE467A27
:101F6000F1EE10FA37FE063A80ED0D3A34EE033A00
:101F700090ED174A35EE033AB8EE445A80ED0F3A29
:101F8000B4EE453AF1EE10FA35FE034AB1EE455A89
:101F900004DCB4EE454AF1EE10FA07D5B4EE445A2B
:101FA000F1EE10FA35FE043A80ED0F3A80ED103A6A
:101FB00001E090ED0A2AC3698361482380ED092A74
:101FC00080ED0A1A0269032980ED070A08BF3C2345
:101FD000C118C260C0ED040A91ED000A704700BF4D
:101FE00000000000C0E9161242F2050142F213029D
:101FF000C0F200110366C0F20012C0E9191280ECB1
:10200000030A704700F1580C80EC030A8CE80E00BC
:10201000704780EC030A7047B0B502AF88B0044641
:102020000B4800250795CDE90355ADF804500594FC
:10203000029002208DF806006FF0004020440690C8
:1020400001A800F007F8002800D4255408B0B0BD5E
:10205000D72D0001F0B503AF2DE9000F97B08246F0
:1020600080781692800705D44FF0FF3017B0BDE896
:10207000000FF0BD1698DAF804804FF000098B4687
:1020800015900FAA0A91CDE90DA8501D0790501E7A
:102090000590594611F8010B252803D08B4648B905
:1020A00000F0ABBD9BF801500BF1020B252D08D1C0
:1020B000DDF838805146C04709F101090028E8D50C
:1020C000D2E7002400264FF0000C4FF0000A1FFA60
:1020D0008AF11F290DD8A5F12700092826D8DFE8A5
:1020E00000F0990A0A0A050A5F0A0A624AF0020A1F
:1020F0004BE07F290DD8A5F130024806092A1CD8EB
:10210000002848D40CEB8C004AF0200A02EB400C6B
:1021100080E04C2D3CD0682D48D06A2D38D07A2DE7
:1021200078D0742D76D06C2D47D079E0202D2CD02E
:10213000232DE0D14AF0100A6CE0242D44D07A2DF2
:1021400068D02E2D57D04C2D22D0682D2ED06A2D40
:102150001ED06C2D31D0742D5CD02A2D60D1002C76
:1021600058D115990A1D15920028096850D4B1F16B
:10217000FF3FDDBF4AF0280AC1F1000C00244AF0FD
:10218000200AC4BF00248C4644E04AF0040A41E01F
:102190004AF4207A3EE006EB860002EB400639E086
:1021A0004AF0080A36E04AF0010A33E00AF4807087
:1021B0004AEA400040F4807A2CE00AF080004AEAC3
:1021C000800040F0800A25E0DCB11698324611F01C
:1021D0004005E046159008BF62460A9815A900F030
:1021E00015FD1598C446011D1591002D00680CBF02
:1021F000844606460EE0002800F1FF844AF0400ABB
:1022000008E0644600264FF0000C4FF0000A01E0A1
:1022100000240E461BF8015B002D7FF458AF00250B
:102220000A98CDF82CC03CB116992246159115A9F3
:1022300000F0ECFCDDF82CC045F02000002E48BF7B
:102240002AF0400A26EAE678A0F16501032901D3C5
:10225000612837D11599073121F0070101F10802F2
:1022600091ED000B1592421B0C9261280FAC14D11A
:1022700050EC106B30230546C0F30A528DF8413004
:1022800042EA06016FF31F55294336D0002A6ED06B
:10229000312311468DF841306AE05FEA4A6158BF48
:1022A0004FF00608CDF82080C1B2662927D0DDF8AE
:1022B000388065292CD108984AF4805A0023652675
:1022C000411C2CE06FF06E01EBB20FAA51FA85F1C0
:1022D000062932D80C9308234FF0000EDFE811F0E6
:1022E000BA020700B202B2026E02B2029E024AF0C5
:1022F000100A10234FF0780EACE209923BE04346FF
:10230000DDF838804AF4005A01226626112107E0E0
:10231000089A1106114608BF0121861E00230022DB
:10232000C9B22046112928BF112100F05CFD0F9B86
:10233000DDF82CC086460225ABE0692B18BF642B64
:1023400040F025821FFA8AF05FEA0A6100F12B82D1
:1023500015990B1D1593D1F800E0C10540F12B82B2
:10236000800554BF0FFA8EFE4FFA8EFE23E2012144
:10237000A1F2FF310991C10F5FEA4A608DF8401068
:1023800002D44FF0000848E0B8F10C0F02D94FF02A
:102390000D0842E03320089100210193A0EB880250
:1023A0000220039201F0F2F9424206924FF000023D
:1023B0008A41441E0492039A61F1000000212840E2
:1023C0000290012001F0E2F9024606EA0400DDF87D
:1023D0002CC00FAC101A029871EB00000FD34FEA1B
:1023E0008800039202912946C0F13402304601F080
:1023F000E1F9DDE90212DDF82CC0C00708D0B618FB
:102400004D41B5F5801F03D3019801308DF841008F
:102410000698089906400498054009984AF4C05A5D
:10242000B0F5806F12D156EA0500CDF820804FF04C
:102430000E0E4FF480634FF0080008BF0420DDF853
:102440003880702608448DF840002BE01220411F90
:1024500016D016F00F0201D188450BDB0C9BD31A66
:1024600057330A2A38BF02F1300323548845C8BFC6
:10247000414688463109013841EA05762D09E6E7EB
:10248000CDF82080DDF83880099B702601254FF0BB
:102490000E0E13F1090F07DA13F1630F0DD213F5C6
:1024A0007A7F08D8042509E0092B07DD632B04D9BE
:1024B000B3F57A7FF6D2032500E002259DF840109F
:1024C000C8071FFA8AF008D15FEA8A7207D4420768
:1024D00007D400220692012206E02D2202E02B22E0
:1024E00000E020220692002211F00C0F0B921AD06D
:1024F0000B9A0420002A18BF032084451ADD0C9D86
:102500005FEA0A711AD4DDF834A0A0EB0C04202095
:102510005146C04700283FF5A7AD013409F1010934
:10252000F5D30B9A08E01AF4405F02962AD0DDF842
:1025300020804AE0DDE90C5A002603E0DDF834A0F3
:10254000ACEB00063AB906985146C04700283FF563
:102550008BAD09F101099DF84000DFF8AC4600079A
:10256000DFF8A00658BF04462078002800F02B832F
:10257000401B5146C0B2C047013409F1010900288F
:10258000F2D571E5089E0121012E98BF0E465FFA33
:102590008EF131B10A191279302A02D1AEF1010E51
:1025A000F5E7C00648BF314613F1040F0BDBB34219
:1025B00009DA8B424AF4005AAEBF4FF00008D84304
:1025C00001EB000801E0A1F101081FFA8AF15FEABE
:1025D0008A40099301954FEA01500491039006D473
:1025E00000284FF0050058BF0320284403E0581C82
:1025F000012BB8BF012008F10101DDF834A0B8F1CA
:10260000000F049C08BFC4F300110B9D85F001026C
:102610008B180344BCEB03064FF00003D8BF1E46E3
:1026200014F0090FCDF820E013D196B108441044FE
:10263000A0EB0C040E9A20205146904700283FF54D
:1026400013AD013409F10109F4D3DDF820E00B9D4D
:10265000002655B906980E9A5146904700283FF536
:1026600003ADDDF820E009F101090398002801D449
:102670000E9C13E00E9C30205146A04700283FF5E9
:10268000F3AC0C985146C0F17800C0B2A0470028C6
:102690003FF5EAACDDF820E009F1020904980007F3
:1026A0000CD45EB1B14430205146A04700283FF51C
:1026B000DBAC013EF7D1DDF820E000260498800471
:1026C00032D49DF84100312805D09DF8401001F02A
:1026D000EF018DF840105146A04700283FF5C4ACEB
:1026E000B8F1010FC0F2F4802E205146A047002817
:1026F0003FF5BAAC09F102050124E0B28045C0F211
:10270000EE800899C9B288420D992FBF30200FAAD8
:10271000104440790E9A90470146013501344FF03C
:10272000FF300029E9D5A1E409990798C8F100080C
:10273000084421EAE17A0D460B905FFA8EF0CAF167
:1027400000040C90012C08D1DDE90D122E209047D9
:1027500000283FF589AC09F1010929194FF0300033
:1027600004D40C9A914201DA0B98005DC2455DDDFC
:10277000DDE90D12904701460134AAF1010A09F181
:1027800001094FF0FF300029DCD5FFF76FBC632B48
:102790000C9357D1159815460124011D1591006819
:1027A0008DF83C001FE08005159800F19C80011D0C
:1027B0001591D0F800E04FEAEE739CE01598011DEA
:1027C00015915FEA4A6158BF4FF0FF380568DFF89E
:1027D00030044146002D08BF0546284600F0EEFAB9
:1027E000DDF82CC004465FEA0A7000F1D781A046EC
:1027F000A44538BFE046DDF834A0A44540F2CD81C1
:102800000E9A202051466646904700283FF52CAC92
:10281000B44609F10109A6F1010CEEE74FF6EF709D
:102820000A234FF0750E0AEA000A13E00131C0F0E6
:1028300018819DF84110DDE90DA8352940F2D581B8
:10284000312010E1782840F02481C5F17800AE46AF
:1028500040F010034FF6F9700AEA00055FEA0A60DB
:102860000AD41598011D1591E90500680AD5A90536
:1028700054BF80B2C0B205E0A805159804D4011D6C
:1028800015910068002107E0073020F007010C4691
:10289000496854F8080B159450EA010408BF2AF05F
:1028A00016050AD02C461546764600F063FADDF888
:1028B0002CC0A0EB050A35463EE05FEA4A64F1D53C
:1028C000012EEFDA4FF6E97075460AEA000431E0AE
:1028D0000498C00600F1EE8009F1010501E0DDF881
:1028E00034A00C98EFE0073020F007000146436861
:1028F00051F808EB1591002B8EEAE37048BF4AF4BB
:10290000806A83EAE3712AF01004B0EBE37061EBB4
:10291000E37153EA0E0308D00A23164600F02AFAA0
:10292000DDF82CC0A0EB060A06E05FEA4A63F3D5A7
:10293000012EF1DA4FF0000A600602D4214650461B
:102940000BE04FF6FE70C24504EA0001504604DA7F
:102950004046002D08BF24F011018AB2C90605D4F3
:1029600040F20641114018BF012103E00221002D71
:1029700008BF01210E1810071FD4D0070C9207D0F2
:10298000D0466645BEBF0AEB0C00A0EB06086646C3
:102990003446B445C8BF644666450CDADDE90D121D
:1029A0002020904700283FF55FABDDF82CC00136B2
:1029B00009F10109F0E70C9A2646D00612D440F23C
:1029C0000640024220D090074FF02B0058BF202035
:1029D000510548BF2D20DDE90D14A047002816D56C
:1029E000FFF742BBDDE90D123020904700283FF58C
:1029F0003BAB5DB1DDE90D14E8B2A04700283FF51F
:102A000033AB09F1020904E00E9C04E00E9C09F1CD
:102A10000109DDF82CC0ACEB0606D0450ADD0D99A6
:102A20003020A04700283FF51FABA8F1010809F1AD
:102A30000109F2E70598CAF10004002500EB0A0835
:102A4000DDF834A0AC4209D018F805000E9A5146C2
:102A50009047013D0028F5D5FFF706BBA9EB050916
:102A6000AFE0DDE90DA85146C04700283FF5FCAABC
:102A7000049909F10100C90609D544B92E2051462F
:102A8000C04700283FF5F0AA09F102099BE0814602
:102A900099E0DDF834A0DDF8388025205146C047A4
:102AA00000283FF5E1AA0C985146C04709F10209F8
:102AB000FFF704BB2E205146A04700280C983FF595
:102AC000D3AA09F102054FF47A7902990E9A081AED
:102AD0005146C0B2904700283FF5C6AA0998002881
:102AE00008D405D19DF84000C00603D40020099009
:102AF0002B2003E00998404209902D200E9A514660
:102B0000904700283FF5B0AA0198042810D3099CEB
:102B10000E9A5146B4FBF9F808F13000C0B2904764
:102B200000283FF5A1AA08FB194405F1030904E0B8
:102B300005F10209032854D1099C4FF06408B4FB45
:102B4000F8F50E9A514605F13000C0B290470028C2
:102B50003FF58AAA05FB184409F101090A200E9ADB
:102B60005146B4FBF0F505F13000C0B290470028A3
:102B70003FF57AAA05EB850009F10109A4EB4004B1
:102B800004F13000DDF838805146C0B2C04700285B
:102B90003FF56AAA09F1010915E0C446A144ACEB6E
:102BA000040664B115F8010BDDE90D1290470146EA
:102BB000013C4FF0FF300029F3D5FFF757BADDF89D
:102BC00034A0DDF83880012EFFF663AA202051469C
:102BD000C047013E09F10109B0F1FF3FF3DCFFF707
:102BE00043BA099C0228B9D2CAE77FF43CAF9DF8EA
:102BF0004010C9067FF524AE35E74846FFF736BAE0
:102C0000CDD700018CD500017ED70001F0B503AF10
:102C10002DE900078246564889464FF001084FF0DB
:102C2000010C5546944580F29F802B4613F8014BCA
:102C3000252C03D0002C1D46F7D195E06C78023589
:102C4000252CF2D000264FF0000E0023B1B21F2930
:102C500008D8A4F12001102906D808FA01F1014290
:102C600047D101E07F290CD8A4F13001092915D8FA
:102C700003EB830146F0200604EB4101A1F1300390
:102C800037E04C2C21D0682C22D06A2C1DD07A2C15
:102C90002FD0742C2DD06C2C21D02FE07A2C28D062
:102CA0002A2C25D02E2C23D04C2C0ED0682C0FD0C3
:102CB0006A2C0AD06C2C12D0742C1AD0242C1DD162
:102CC000BEF1000F12D19E4612E046F4207610E0CD
:102CD00006F4807146EA410141F4807609E006F08D
:102CE000800146EA810141F0800602E063450CD094
:102CF000002315F8014B002CA8D10024BEF1000FD1
:102D000032D0E6457FF48EAF02E06324E646F5E775
:102D100044F02003A3F16501032901D3612B0BD1FA
:102D2000D9F80010073121F0070101F10803C9F8B3
:102D300000300CF1010C74E7E3B2732B07D0642B65
:102D400003D0692B01D0632B01D0310603D4D9F80D
:102D500000100B1DEBE7B1B2D9F80030890501D4A2
:102D60000433E4E7D91DDEE7BDE80007F0BD00BF8E
:102D700089280100F0B503AF2DE9000B14460E467B
:102D8000054603F01F08C3F137092846314642467D
:102D90000023FDF709FC00FB1852092A88BF4A44AA
:102DA000303204F8012BB5EB0802054676F100023B
:102DB0000E46EAD22046BDE8000BF0BDD0B502AF0A
:102DC0004218034629B11C7814B101390133F9E7DF
:102DD0001A46101AD0BDD1E904239A421EBF531CD3
:102DE0000B6110707047F0B503AF2DE9000F9DB077
:102DF00056EC108B8B4635464FEAD67CC6F30A5606
:102E00006FF31F5558EA050108BF002E0CD040F2A1
:102E1000FF74A64213D108224FF0000B002908BF0F
:102E2000042202EB0C0108E0302100224FF0010BDC
:102E300041710CF10201827102600171FFE1002415
:102E4000A6F23549022E38BF0124002918BF0121FE
:102E500021431091002E18BF05F580154FEA85011A
:102E600004BF4FF6CC39CFF6FF79CDE908C0CDE9E4
:102E700005B30A9241EA98744FEA8801B9F1000F4C
:102E8000129108F00101139404913DD4484600F0DA
:102E90001DFC0646B9F1030F88BF013E304600F025
:102EA00021FC14AC82463046214600F081FB18A874
:102EB0001AA900F0EAFAA6EB0900B146504400F165
:102EC0007C03404600F0DCF98246152E119152D861
:102ED000129E139CDDF840803046214600F0C0F978
:102EE000820820F0030042EA817108444042F04227
:102EF0005CD13046214600F0CFFA002110914845C0
:102F000028BF01210A9D7CE0C9F1000B584600F062
:102F1000E3FB824619F1010018BFAAF1010AABEBED
:102F20000A0B584600F0DEFB14AC06465846214614
:102F300000F0D0FA18A81AA900F0A7FAAAEB060028
:102F400000F17D03404600F09BF90646D144BAF1FA
:102F5000010F119113D80498DDF814B00A9D40B107
:102F6000DDE91A0101381A9061F100001B90002080
:102F7000109001212FE000200A9D002140E0DDF8A3
:102F800014B0BAF13E0F22D84FF0FF304FF0FF31AE
:102F9000524600F0FBFB139A22EA0101129A22EA40
:102FA00000000843B0FA80F0410911E004980A9D3E
:102FB00098B96FEA0800801964F1000100F06CFA1A
:102FC000002148454FF0000028BF012018E00021F3
:102FD0000A9D00201090B24613E046F00200214600
:102FE00000F05AFADDE91A1C4B1E6CF1000248454C
:102FF00038BF0B461A9338BF6246002100201B924F
:10300000109058460F9165B11199504600F025FA7D
:103010000699494408440128D8BF01208345B8BF18
:103020005846CDF81C90DDE91869DDE91A410B908E
:1030300000200025CDE9120020460E940D9100F0ED
:1030400005F904468B4630464946CDF8309000F0ED
:10305000FDF88046001B894671EB0B000DD31199DA
:10306000504600F0FAF90B99884229DD2A460125DD
:1030700019B9119850EA0A0025D01199504600F06C
:10308000E5F8119112990F9AC9B2B1FA81F1490983
:103090000A4000EB8001AAEB41010F92109A824690
:1030A000129108EB8801C6EB41014646B1FA81F165
:1030B00049090A4013991092013113915946BBE70F
:1030C000DDF844B004E04FF0000A4FF0000B154665
:1030D000109CDDF83C90E00734D0DDF83080CDE97D
:1030E00010453046414600F0B1F8044600EB800040
:1030F0000D4671424042B1EB400F1DD1DDE90D108C
:1031000000F0A4F8CDE90D105046594600F09EF8A5
:103110008B4612992646A846C9B2B1FA81F14909EF
:1031200009EA010900EB8001AAEB410182461291F4
:10313000139901311391D4E7DDE91045CDF83080C2
:10314000CDF83C900798139901EB00091298C0B292
:10315000411F18BF0121EA070CD10C9B8AEA060225
:1031600083EA0B031A4305D1049A82F0010222403C
:10317000012A69D10F9A82F001021143002241EA2B
:103180000A01042888BF012201EA02041AEB04069E
:103190004BF1000A3046514600F05FF98046FCB121
:1031A0000B9988451DDD0A9840B106984844404473
:1031B00020EAE07105988842B8BF0146884510DDD5
:1031C000701D0C464AF100010A220023FDF7ECF9BC
:1031D0008A4606462146A8F1010809F1010900E0E6
:1031E0000B998845B8BF41460FFA89F00FFA81FB69
:1031F000DDF824900BF10405A0F1010800245C45E2
:1032000012DA304651460A220023FDF7CDF98A46EC
:1032100000EB80010134A6EB4101064641F030018C
:1032200009F80510013DEAE709EB0B0000214171A7
:10323000089889F8040008EB0B00C9F8000058460C
:103240001DB0BDE8000FF0BD01249FE780B56F46BB
:1032500000F006F8C00840EA4170C90880BDD4D427
:10326000F8B504AF02AA4FF0CC330092034A00F045
:1032700041FADDE9020104B080BD00BFCDCCCCCC69
:10328000F0B503AF2DE9000F8BB01E469246D2E990
:10329000002308AC49004500009441EAD074284658
:1032A000214600F027FA0590DAE90223DDE90889D2
:1032B00006A88B4621460090284600F01BFA18EB22
:1032C000000849EB0109DDE90801B8EB000079EBE2
:1032D00001004FF0000038BF0120DDE906124D1C4F
:1032E00042F10004002808BF1446079408BF0D46A9
:1032F0000296413E9AE80F000695CDF80CB0049670
:103300000096059E12EB080243EB090380194FF06B
:1033100000065BEB010052F1000043F10001B0EB4D
:10332000080271EB090238BF01266A1C44F1000350
:10333000002E04BF23462A4600F0FDF9BA68C2E910
:1033400000013869012830D1DAE90201DAE900CE5A
:10335000059BDDF810A0DDE90654B8EB0006CDF8BA
:1033600000A069EB0102701E62F10001B3EB0C03D7
:10337000039B73EB0E034FF0000338BF0123002BB8
:1033800004BF304611460026B8EB000279EB01027B
:1033900038BF01266A1E64F10003002E04BF2A46CE
:1033A000234600F0C8F9544649E0029B039C9AE882
:1033B0000340DAF80CA0DDE9062CA3F14006059BDA
:1033C0000096660046EAD376D0EB430076EB010028
:1033D0004FF000064FEA490038BF012640EAD87393
:1033E0004FEA480040EAD474B4EB0E0E63EB0A05D2
:1033F000BEF1010065F10001002E04BF29467046B0
:10340000251A73EB01054FF0000538BF0125B4EB19
:10341000080473EB09034FF0000338BF012343EAAC
:1034200042044FEA4C0343EAD276621E66F100037F
:10343000002D04BF2246334600F07DF9049CFA6853
:10344000C2E90001DDE9062340464946009400F048
:1034500072F90BB0BDE8000FF0BDF0B503AF4DF849
:1034600004BD00230A2401220A25461B71EB030632
:1034700007D3A5FB045603EB8303013206EB43039A
:10348000F3E710465DF804BBF0BD2246CDE900101D
:103490001098294602907047F0B503AF4DF804BD6F
:1034A0000A4B0B4D02464FF0FF304FF0CC3CA2FBD5
:1034B0000364013002FB0C4201FB0321721B71F11A
:1034C00033323246F3D35DF804BBF0BDCDCCCCCC67
:1034D00034333333F0B503AF2DE9000F89B08A469A
:1034E0001A210546B0FBF1F22E4802FB01FB00EB6E
:1034F00002105D4502D100F0E1F84FE006A92A4A2A
:103500000091A5EB0B0152F8314002EBC101D0E96B
:1035100002234E68016803914168204602913146BA
:1035200000F0E8F8804604A8DDE902328946314619
:103530000090204600F0DEF80E46DDE9041203900C
:10354000002018EB010859EB020940F100000128A6
:1035500001D100F0ABF8284600F0C4F80446584604
:1035600000F0C0F8241A0398314642464B460094B6
:1035700000F0E1F81E226FF0030302EA450203EABD
:1035800095030A4DEB5800F087F8CAE90001404660
:103590004946009400F0CFF8CAE9020109B0BDE83D
:1035A000000FF0BDA0D0000170D1000140D2000199
:1035B000F0B503AF2DE9000F89B08A4605461930F2
:1035C0001A21B0FBF1F2314802FB01F600EB0210C8
:1035D000AE4202D100F072F853E006A92C4AD0E9BD
:1035E000009B0091711B52F8318002EBC101D0E9C0
:1035F00002234C684046214600F07CF8CDE90210D9
:1036000004A8B9F10102214600906BF10003404685
:1036100000F070F88B46DDE9033104460020059A7E
:1036200011EB0308029952EB010940F10000012857
:1036300001D100F03BF8304600F054F80646284629
:1036400000F050F8361A2046594642464B4600963E
:1036500000F071F86FF003030E4C1E2203EA95038D
:1036600002EA4502E35800F017F8013041F1000189
:10367000CAE9000140464946009600F05CF8CAE9F4
:10368000020109B0BDE8000FF0BD00BF98D20001F3
:1036900070D1000188D3000123FA02F202F0030284
:1036A0008018DDE9062341F100017047DDE90601DC
:1036B0000130069041F100000790704790E80E003D
:1036C000C0688AE80E00CAF80C00704701494843F8
:1036D000800C70474134010001494843000D704798
:1036E000FB2E0B0002494843012101EBD0407047FB
:1036F0004F931200F0B503AF4DF804BDA3FB014595
:10370000A2FB0116A2FB00C2D7F808E052187441D0
:103710001146264645F10005E3FB0016A3FB000316
:10372000801854EB030045F10000CEE900606046CC
:103730005DF804BBF0BDF0B503AF2DE9000BD7F881
:10374000088016468946054619463046C8F14002AB
:1037500000F01CF806460C4628464946424600F052
:1037600029F830432143BDE8000BF0BD0B4611465C
:103770001A4600F004B80A46002100F000B8002301
:103780009A4208BF7047C1540133F9E793060BD43E
:10379000002A08BF7047C2F1200320FA03F39140CA
:1037A00090401943704700BFA2F1200100FA01F1D7
:1037B0000020704793060BD4002A08BF7047C2F15F
:1037C000200301FA03F3D040D1401843704700BFF3
:1037D000A2F1200021FA00F0002170472DE9F04706
:1037E000DDF820C091B1EAB1A3B3B3FA83F7B1FA1F
:1037F00081F6BC1B202C5BD3BCF1000F18BFCCE9B9
:10380000000100200021BDE8F08700BF002B41D05F
:10381000BCF1000F4FF0000150D0CCE900010020B6
:10382000BDE8F087002B4DD0002861D05F1E3B42E1
:103830006CD1BCF1000F1CBF07EA0102CCE9000209
:1038400093FAA3F0B0FA80F021FA00F00021BDE86D
:10385000F08700BF571E3A4236D1BCF1000F1EBFA1
:1038600007EA00030027CCE90037012A08BFBDE8BA
:10387000F08792FAA2F2B2FA82F202F01F07F84041
:103880001F274B00D14027EA020203FA02F210433D
:10389000BDE8F087B0FBF2F3BCF1000F04D003FBEE
:1038A00012000021CCE9000100211846BDE8F08794
:1038B00004F1010EBEF1200F10D031E00020BDE870
:1038C000F08700BFBDE8F087B2FA82F7B1FA81F65F
:1038D000BF1B07F1210EBEF1200F35D100254FF09F
:1038E000200E4FF00008BEF1010F27D041E000BFCD
:1038F000B1FBF3F0BCF1000F04D000FB1311002268
:10390000CCE900210021BDE8F08700BFB3FA83F7BE
:10391000B1FA81F6BC1B1F2CBFF46EAF04F1010E8F
:10392000C4F11F0420FA0EF621FA0EF5A140A040C2
:1039300031434FF00008BEF1010F1AD100265FEAB3
:10394000CE7454D16FE000BFBEF11F0F02D8CEF18C
:103950002004E7E7CEF14005AEF1200600FA05F8B5
:1039600001FA05F5F0402843F1400025BEF1010FB2
:10397000E4D02EF0010A00266D0045EAD175490019
:1039800041EAD071CF43EC43BF184FEA40005C419D
:103990008F1A40EAD87946EA480865EB0306002CFE
:1039A0005CBF2E460F46710041EAD776790041EAA6
:1039B000D0774FEA49004FEA480140EAD87041EA1F
:1039C000D478FC43F143A41841EB0304B91A66EB25
:1039D0000305002C5CBF35463946BAF1020A4FEAAE
:1039E000D476C9D14FF000095FEACE741BD06F00C6
:1039F00047EAD17E490041EAD077400040EAD870DA
:103A000046EA4808FE436FEA0E01B61841EB03048C
:103A1000B91A4FEAD4764FF000096EEB0305002C7B
:103A20005CBF754639464FEA48024FEAD87343EA0D
:103A3000400322F00100BCF1000F18BFCCE90015D3
:103A4000304343EA0901BDE8F087D4D440F2E95C91
:103A5000C0F2000C604740F2915CC0F2000C60477D
:103A600040F2195CC0F2000C6047D4D480B54DF22E
:103A70008270C0F20010FCF7A9FDFEE72DE9F04FBF
:103A800085B040F2C0024EF62857C2F21002CEF2C4
:103A900000070491106039690191F96800913E684E
:103AA0008169D0E900ABD0E90298D0E90454C0693B
:103AB00003904DF2C2500291C0F20010FCF786FD57
:103AC0004DF2BD70C0F20010FCF780FD4DF2854054
:103AD0005146C0F20010FCF7A2FD4DF2DB605946E2
:103AE000C0F20010FCF79BFD4DF218604946C0F291
:103AF0000010FCF794FD4DF20B604146C0F200103F
:103B0000FCF78DFD4DF2D9502946C0F20010FCF7AC
:103B100086FD4DF292402146C0F20010FCF77FFD79
:103B20004DF21E700299C0F20010FCF778FD4DF2C4
:103B3000F6400399C0F20010FCF771FD4DF2B17030
:103B4000C0F20010FCF742FD4DF290503146C0F239
:103B50000010FCF764FD4DF28D607968C0F2001032
:103B6000FCF75DFD4DF22560B968C0F20010FCF76E
:103B700056FD4DF22B707969C0F20010FCF74FFD35
:103B8000300606D54DF2CB600099C0F20010FCF76C
:103B900046FD300406D54DF240500199C0F20010A8
:103BA000FCF73DFD4DF24F50C0F20010FCF70EFD4A
:103BB0004DF23A700499C0F20010FCF730FDFEE7B8
:103BC00080B54DF25C40C0F20010FCF7FFFCFEE750
:103BD00080B54DF29C60C0F20010FCF7F7FCFEE7E8
:103BE00080B54DF26670C0F20010FCF7EFFCFEE706
:103BF00080B54DF2DC30C0F20010FCF7E7FCFEE7C8
:103C000080B54DF2ED30C0F20010FCF7DFFCFEE7AE
:103C100080B54DF2F860C0F20010FCF7D7FCFEE76B
:103C200080B54DF27860C0F20010FCF7CFFCFEE7E3
:103C30004EF200364DF204580025CEF20006C0F2D6
:103C400000180027002456F82700E040C00703D0E2
:103C500029194046FCF7E3FC0134202CF3D101374D
:103C60002035082FEED1FEE740F20450C4F20700E1
:103C70000168026802B101604FF63041CFF6FF7172
:103C8000425822F080624250BFF34F8FBFF36F8FD4
:103C900030BF704770B54EF65460C0F20010016836
:103CA00071B340F2000340F20005C2F21003C2F209
:103CB000100540F2000C0022C4F2070CA5EB030E25
:103CC0003AB102EB420300EB8304E568D4E9014317
:103CD0000BE0DCF800309B07836802D4C5684468B9
:103CE00003E044687344C5687444ED1A2DB113F8B9
:103CF000016B013D04F8016BF9D101328A42DFD139
:103D00004EF69460C0F20010046874B1051DD5E948
:103D10000001814205D0091A012998BF0121FFF74E
:103D20002AFD013C05F10805F1D170BD40F20450B7
:103D300049F20001C4F20700C4F20D01026842F02A
:103D40000F0202600020C4F20700006891F8B00181
:103D500010F0C00F04D005200860C020C1F8200179
:103D60002DE9F0414EF6145040F6FF72CEF20000FD
:103D70008A6340F2010C40F2C40E416F40F2F00839
:103D800041F470014167BFF34F8FBFF36F8F01683C
:103D9000C0F2083CC2F2100EC2F2100841F010014D
:103DA0000CF11E020160BFF34F8FBFF36F8F002134
:103DB000CEF80010C8F800204FF08072CEF8042032
:103DC0002322C0F2023202F10803C8F804304FF097
:103DD000A073CEF808300CF11C03C8F808304FF07F
:103DE000A873CEF80C30C8F80C204FF0AA72CEF8A9
:103DF00010200CF11A02C8F810204FF00052CEF833
:103E000014200CF12202C8F814200022C2F2100281
:103E1000CEF8182023224FF08043C0F20B32C8F8AE
:103E20001820CEF81C303923C1F210331432C8F8F0
:103E30001C304FF0C043CEF82030C8F820204FF09F
:103E40002042CEF824201722C1F20132C8F82420E3
:103E50004FF06042CEF828202722C1F20032C8F885
:103E60002820BFF34F8FBFF36F8F026892035CBFB0
:103E700002685FEAC23261D50167BFF34F8FC26E3D
:103E800043F6E076D408C2F34E31C2F3C902531CA4
:103E9000A4074D0105EA0602A7181A46C0F8607289
:103EA000013A07F14047BFF34F8FF7D10029A1F145
:103EB0000101A5F12005EDD1016F43F6E07641F057
:103EC000010101670021C0F83C12BFF34F8F016769
:103ED000BFF34F8FC26ED308C2F34E31C2F3C90293
:103EE00001329C074D0105EA0603E7181346C0F8A6
:103EF0006072013B07F14047BFF34F8FF7D10029B4
:103F0000A1F10101A5F12005EDD1016F41F0010101
:103F100001670021C0F83C12BFF34F8F016821F404
:103F200000310160BFF34F8FBFF36F8F016821F441
:103F300080310160BFF34F8FBFF36F8F00210022EC
:103F400058F82130DB070BD0D3B2C0F884305EF8CC
:103F50002130C0F88830013258F82130C0F88C3058
:103F600001310B29ECD14CF200024FF6FF71C2F285
:103F70001302C2F21301891A0F238910C0F884308A
:103F80000229C0F888200AD36FF0010203294FEA02
:103F9000510102F10202F9D842EA0C0101E04FF0AE
:103FA000FF31C0F88C1043F6E076D0F8801041F075
:103FB0000101C0F88010BFF34F8FBFF36F8F002156
:103FC0000167BFF34F8FC26ED308C2F34E31C2F305
:103FD000C902541C9B074D0105EA06029F182246A0
:103FE000C0F84C72013A07F14047BFF34F8FF7D149
:103FF0000029A1F10101A5F12005EDD1BFF34F8FFB
:10400000016841F480310160BFF34F8FBFF36F8FC0
:10401000BFF34F8FBFF36F8F0021C0F83C12BFF387
:104020004F8FBFF36F8F026843F6E07642F40032A1
:104030000260BFF34F8FBFF36F8F0167BFF34F8FE6
:10404000C26ED308C2F34E31C2F3C902541C9B079F
:104050004D0105EA06029F182246C0F86072013A37
:1040600007F14047BFF34F8FF7D10029A1F10101BC
:10407000A5F12005EDD1016F41F00101016700219B
:10408000C0F83C12BFF34F8FBDE8F081032802D87F
:10409000C0B205F020BE00207047032802D8C0B28D
:1040A00005F08DBE002070472DE9F04F81B04468C7
:1040B00002EB4202DDF8288004EBC1006468476827
:1040C000A46807EB8206354655F8080FC17911B18F
:1040D000E16804290ED8216902290BD8216A012937
:1040E00008D8E169012905D861690F2902D8A169B9
:1040F000072903D9302001B0BDE8F08F40F6000C4D
:1041000057F82210C4F2070C21F003044FF0180EE8
:1041100064440EEAC1014FF0FF0A0AFA01FBD4F829
:104120000011D6F8049021EA0B01C4F80011022B0B
:1041300057F822100EEAC10221F003010AFA02F236
:1041400051F80C4024EA020241F80C202CD0012B3B
:1041500000F09180002B40F0EE8009EB890700EB26
:10416000C700C178427983794078520142EAC1118F
:10417000182241EA831141EA00103168C0B221F0EF
:10418000030340EA080002EAC10188405CF803101A
:1041900008434CF8030030689428C0F0CE80B8F192
:1041A000030F40F0C880CBE009EB890800EBC801A1
:1041B00010F83800CB784F79D1F814908A7903F051
:1041C00001034C7807F0070702F0030249EAC31322
:1041D00004F00F0443EA471391F8049043EA821273
:1041E000336842EA041223F003040EEAC3038F6922
:1041F00002FA03FB5CF8043009F0030291F802A014
:104200004BEA03090B6A47EA8212C96942EAC30210
:104210000AF00F034CF8049042EA4111326841EA77
:1042200003110EEAC20322F00302624499400028FF
:10423000D2F8003141EA0300C2F800017BD05620D9
:1042400000F037FF28681C216FF003024AF2400398
:1042500000EBC800C4F20D03808C01EA800102EA81
:1042600050000F228A40C75827EA0202C2502A682B
:1042700002EBC80256E009EB890700EBC7010A7997
:104280008B78D1E90741920103F00F03D2B242EAE1
:10429000C101326841EA4411182441EA031122F0B5
:1042A0000303634441EA080104EAC2029140D3F8DF
:1042B00000211143C3F800113268802A60D3B8F19D
:1042C000020F11D1540902F01F06204600F0D6F962
:1042D0004DF6E4000121C0F20010B14050F8240076
:1042E000426811434160286810F8370018B356201F
:1042F00000F0DFFE28681C216FF003024AF2400341
:1043000000EBC700C4F20D03808C01EA800102EAD1
:1043100050000F228A40C65826EA0202C2502A687C
:1043200002EBC702127A02FA01F1C2581143C150DE
:10433000562000F0B4FE0020DDE6B8F1000FFAD1FF
:10434000440900F01F08204600F098F94DF6E400FB
:104350000121C0F2001001FA08F150F8240042686F
:1043600022EA01014160286800EBC701C8790028F2
:10437000E1D03068C96801B0BDE8F04F07F05ABE1F
:10438000B8F1000FB0D19DE72DE9F04782B04AB1F6
:10439000D2F804A0DAF8046026B10446A02805D9B2
:1043A0003B2000E0332002B0BDE8F08788460229B8
:1043B00001D93220F7E7D2F80090D6F804E0B9F13D
:1043C000000F1BD04FF0000C002100265AF8367069
:1043D0006FB10AEBC6035D68002355F80C0BA042D1
:1043E00003D001339F42F8D101E031469C460136AB
:1043F0004E45EBD10AEBC100466802E000214FF0C8
:10440000000C0CEB4C000EEB8E0306EB800080687A
:1044100000EBC3031B69434501D10020C3E740F60D
:1044200000051823C4F2070503EAC40705F58075E3
:10443000B8F1000F08BF142304BF40F60005C4F212
:104440000705C05810260090104662464346BE40FD
:10445000FFF72AFE24F003016A5832436A50A2E7AC
:104460002DE9F04381B042B1D2F80490D9F804406C
:104470001CB1A02805D93B2000E0332001B0BDE8E5
:10448000F0830F2901D93220F8E7D2F80080B8F183
:10449000000F1DD04FF0000E4FF0000C002559F812
:1044A000356076B109EBC5046768002457F80C3B0A
:1044B000834208BFA64604F1010408BFAC46A642E9
:1044C000F4D101354545EAD109EBCC00446803E05D
:1044D0004FF0000C4FF0000E0EEB4E0004EB80008E
:1044E000806803690091104661467246FFF7DCFD63
:1044F000C4E72DE9F04F81B04EF63002C0F2001251
:10450000D2F800C0BCF1000F24D0884604465068A1
:1045100000260123002150F8365075B100EBC60289
:1045200000275668002202EB420256F82220A242DF
:1045300008D00137FAB29542F5D80131CEB2B44570
:10454000E9D805E001310023CEB2B445E3D803E059
:10455000D80701D03B207CE0B8F1000F4FD098F88D
:10456000140098F8101098F8152098F812704B0164
:1045700098F8116043EAC01340F6000043EA821243
:1045800024F0030542EA071298F81370F600C4F20B
:104590000700D8F808C04FF0FF0E46EA8717D8F892
:1045A0001C60FFB2D8F80C9047EA461B1826D2B21E
:1045B00006EAC40642EA0C020EFA06F32958B24093
:1045C00099432F181143D8F8042029504BEA0910B9
:1045D000D8F800A0D7F8001110439943B040BAF1C1
:1045E000010F40EA0100C7F800010AD0BAF1000F3C
:1045F0002ED1942C0AD3BCF1030F0AD028E033202B
:1046000027E0802C23D3022A22D125E0BCF1000F21
:104610001ED1660904F01F05304600F02FF84DF654
:10462000E4010122C0F20011AA4051F826104B68A3
:1046300023EA02024A6098F8161051B148B9D8F836
:104640001810204601B0BDE8F04F07F0F3BC1AB1D6
:10465000002001B0BDE8F08F650904F01F04284672
:1046600000F00CF84DF6E4010122C0F20011A24066
:1046700051F825104B681A434A60EAE7042802D82B
:104680000E3000F016BD10207047072801D93820E1
:1046900070474EF60C514FF6FF03CEF200010A6848
:1046A0001A4060F30A2242F0806040F0FD7008601A
:1046B00000207047DB2801D93220704700F01F012D
:1046C000012202FA01F14EF280224009CEF20002EC
:1046D00042F820100020704710B54EF60C536FF0D2
:1046E0000104CEF200031B68C3F3022E4FF0FF3328
:1046F0008EF0070C04FA0EF403FA0CF314400B408E
:104700001C43234618BF3823DB2888BF32238CB9CB
:10471000DB280FD80EF101034EF200449940FF232D
:10472000CEF2000423FA0CF31A40035D1143002378
:1047300003550155184610BDDB2801D932207047BA
:1047400000F01F01012202FA01F14EF200124009AD
:10475000CEF2000242F8201000207047DB2801D979
:104760003220704700F01F01012202FA01F14EF2DF
:1047700080124009CEF2000242F820100020BFF360
:104780004F8FBFF36F8F704748B14EF60C51CEF28A
:1047900000010968C1F30221016000207047332045
:1047A000704719B1DB2803D9322070473320704796
:1047B0004EF20042CEF20002805C0870002070478A
:1047C00019B1DB2803D932207047332070474EF2ED
:1047D00000134209CEF2000300F01F0053F822201C
:1047E00022FA00F000F0010008600020704719B1C3
:1047F000DB2803D932207047332070474EF2002364
:104800004209CEF2000300F01F0053F8222022FAE2
:1048100000F000F00100086000207047DB2801D99B
:104820003220704700F01F01012202FA01F14EF21E
:1048300000224009CEF2000242F82010002070470A
:1048400019B1DB2803D932207047332070474EF26C
:1048500000334209CEF2000300F01F0053F822207B
:1048600022FA00F000F00100086000207047DB2809
:1048700001D9322070474EF60071CEF20001086077
:1048800000207047072801D938207047DBB1B0B548
:1048900080F0070C4FF0FF35BCF1040F28BF4FF03C
:1048A000040CB0F1030E05FA0CF44FF0000021EAFD
:1048B000040138BF864605FA0EF501FA0EF1AA4347
:1048C00011431960B0BD3320704784464FF0330068
:1048D0003AB133B1BCF1FF0F4FF0380098BF072950
:1048E00000D9704770B581F0070E4FF0FF36BEF16A
:1048F000040F4FF0000028BF4FF0040E033906FAF2
:104900000EF538BF01462CFA01F424EA050506FA33
:1049100001F115602CEA01011960BDE87040704793
:1049200040B14EF69051CEF200010968090A0170BB
:10493000002070473320704770B54EF6905C4FF002
:10494000FF33CEF2000CDCF8002053FA92F28242E0
:1049500007DD61B1D1E901239A1A202A09D2312554
:104960000CE04FF03B054FF03B0239B977E03322C2
:1049700075E0CA680025072A88BF32250B69162B07
:104980004BD801226F269A40C0F26E06324244D0C4
:10499000D1F814E025B9BEF1030F01D932225EE04F
:1049A0008C692A46032C88BF3222002D18BF2A4664
:1049B000032C54D8002D52D1D1E90125AE1A05D0CF
:1049C0000025760805F10105FBD100E000254FF038
:1049D000FF36AE40F643324201D036223FE0CCF8FB
:1049E00008003E20CCF80C2000EB45000A7F00F0C8
:1049F0003E004D7FC96840EA0220002D18BF00F537
:104A0000802007290ED14FF4C01101EACE4164F392
:104A10001141084300F500100BE0002D08BF3225BE
:104A20002A461CE04DF6DC02C0F20012515C40EA5E
:104A300001404FF6FE7140EA0360C1F2FF710022AF
:104A40000840BFF34F8F80F08050BFF36F8F80F02E
:104A50000100CCF81000BFF34F8FBFF36F8F1046EB
:104A600070BD4EF6905C4FF0FF32CEF2000CDCF8D9
:104A7000003052FA93F2824211DDCCF80800BFF305
:104A80004F8FBFF36F8FDCF8100051B140F0010081
:104A9000CCF81000BFF34F8FBFF36F8F09E03B20BE
:104AA000704720F00100CCF81000BFF34F8FBFF328
:104AB0006F8F0020704780B54EF6905C4FF0FF324C
:104AC000CEF2000C1629DCF8003052FA93FE20D802
:104AD00001226F238A40C0F26E031A4219D0864524
:104AE0001BDDCCF8080001F01701DCF81000BFF363
:104AF0004F8F20F0B850BFF36F8F40EA016080F015
:104B00008050CCF810000020BFF34F8FBFF36F8FA1
:104B100080BD864501DD322080BD3B2080BD002860
:104B20004FF0330246D0002944D010B54EF6285C31
:104B30000023CEF2000C0B70DCF80030DCF8002013
:104B4000120603F03B0E02D44FF0FF3C01E0DCF80C
:104B50000CC00023BEF1000F22D0724602F0010407
:104B600052082344FAD1DAB2022A03D30522C0E95B
:104B700000C21AE0BEF1070F0ADDBEF1080F1BD01C
:104B8000BEF1100F1AD0BEF1200F09D1042208E0A7
:104B9000BEF1010F14D0BEF1020F01D1012200E0DD
:104BA00006221B06C0E900C201D0012008700022C5
:104BB000BDE81040104670470322F2E70222F0E7FA
:104BC0000022EEE74EF6945140F00100CEF20001D3
:104BD000BFF35F8F08600020BFF34F8FBFF36F8F6D
:104BE00070474EF69450BFF35F8FCEF2000001681D
:104BF00021F0010101600020BFF34F8FBFF36F8FE1
:104C000070474EF698510022CEF200010860002055
:104C10008A6070474EF69C52CEF20002106000206F
:104C2000516070474EF69853CEF200031860002092
:104C300059609A607047D8B14EF69C5C0529CEF257
:104C4000000C0BD3002350F823204CF82320013311
:104C5000082BF8D1043920300429F3D831B14900A8
:104C6000013950F8042B4CF8042BF9D1002070477F
:104C70003320704780B548B190F801C00278BCF18C
:104C80000F0F05D94FF038015AB95FE033215DE0CD
:104C9000012A4FF0000188BF3821002A4FF000039D
:104CA00047D0037B012B1AD8C37A062B17D8837AF7
:104CB000022B14D8437B012B11D8837B012B0ED8F8
:104CC000C37B012B0BD8437AFF2B08D0037AA3F1C7
:104CD000200E00231EF11C0F38BF012300E001232A
:104CE00011B90BB1382131E081BB4EF69851CEF2AB
:104CF0000001C1F800C043684B60017BC37A90F8A3
:104D00000AC090F80DE042EA0171827B41EA03613A
:104D1000C37B41EACC4190F809C041EA8E41007A58
:104D200041EA424141EA034141EA0C2141EA4003A0
:104D300006E04EF69850CEF20000C0F800C0436086
:104D40004EF698500021CEF200008360084680BDE8
:104D500010B540F2D1420024C2F21002C6F27154E2
:104D60001278012A05D100F01BFE002818BF20434D
:104D700010BD04F1120010BD10B540F2D142002464
:104D8000C2F21002C6F272541278012A05D100F064
:104D90001CFE002818BF204310BD04F1120010BDF6
:104DA000B0B5002814460D46104602D001F03EFA78
:104DB00001E001F071F938B9204615B101F0BAFBF4
:104DC00001E001F0F8FA20B140F0CA4040F4E600FA
:104DD000B0BD0020B0BD80B501F0B4FC40F0CA41C8
:104DE000002818BF41F4050080BD80B501F021FD09
:104DF00040F0C841002818BF41F0C37080BD10B515
:104E000040F2D2420024C2F21002C6F27554127867
:104E1000012A05D101F0A6FD002818BF204310BDCE
:104E200004F1120010BD40F2D241C2F21001097823
:104E3000012909D180B501F0A9FD40F0CA4100283F
:104E400018BF41F4EA0080BD1220C6F276507047C8
:104E500010B540F2D2410024C2F21001C6F27754DC
:104E60000978012905D101F09CFD002818BF2043D5
:104E700010BD04F1120010BD80B500F001FE40F03D
:104E8000C041002818BF41F0AF6080BD80B500F080
:104E90002AFE40F0C841002818BF41F0BD7080BD17
:104EA00080B500F074FE40F0C841002818BF41F002
:104EB000BD7080BD80B500F07AFE40F0CA41002888
:104EC00018BF41F4F60080BD80B500F080FE40F0D0
:104ED000C841002818BF41F0BE7080BD80B500F009
:104EE0007FFE40F0CA41002818BF41F4FA0080BD9F
:104EF00080B500F08FFE40F0C841002818BF41F097
:104F0000BF7080BD80B500F018FF40F0CA41002896
:104F100018BF41F4FE0080BD80B500F018FF0028E6
:104F200018BF40F0CB4080BD80B500F023FF40F0BB
:104F3000CA41002818BF41F4010080BD80B500F0CF
:104F400033FF40F0C841002818BF41F0C17080BD58
:104F50002DE9F04140F20008C6F2835888B10446BA
:104F6000006960B100270026A069384400F052FEB5
:104F700058B901362069864207F10407F4D30025A9
:104F800004E008F13300BDE8F0810546606960B1D6
:104F900000270026E069384400F022FE30B90136CF
:104FA0006069864207F10407F4D3002050EA050146
:104FB00001D02DB902E0204600F094FF054618B15B
:104FC00045EA0800BDE8F0810020BDE8F08180B529
:104FD00001F018F840F0C841002818BF41F0C27035
:104FE00080BD80B501F016F840F0CA41002818BF16
:104FF00041F4070080BD80B501F02CF840F0C041BD
:10500000002818BF41F0B16080BD00BF10B500247A
:105010006328C6F2655402D904F1320010BD49B1CB
:10502000032812D8DFE800F00215090D084600F049
:10503000FEF914E004F1330010BD084600F028FB2F
:105040000DE0084600F0EFFA09E0A0F14D02152A44
:1050500003D8084600F059FB01E000F073FB00287C
:1050600018BF204310BD10B540F2D3420024C2F255
:105070001002C6F266541278012A05D1012906D021
:1050800051B900F04EF904E004F1120010BD00F037
:1050900051FA10B9002010BD3220204310BD80B558
:1050A00000F062F840F0C041002818BF41F0AD6048
:1050B00080BD80B500F075F840F0CA41002818BFE7
:1050C00041F4D20080BD00F08AB880B500F097F8B6
:1050D00040F0CA41002818BF41F4D60080BD80B519
:1050E00000F0B8F840F0CA41002818BF41F4D600DB
:1050F00080BD80B500F0DAF840F0C841002818BF44
:1051000041F0B67080BD70B582B004460026C6F28C
:105110006E564FF000008DF807008DF80600F4B1D0
:105120000DF1070000F0DBF805460DF1060000F078
:10513000E7F89DF8071028439DF80620002D81F020
:10514000010140EA010082F0010140EA0100B0FAE9
:1051500080F04FEA5010207018BF354301E006F18F
:105160003305284602B070BD572801D93220704758
:10517000B0B5440900F01F05BFF34F8F03F0F1F9FC
:1051800040F220110120C4F20701A84051F8242068
:10519000104341F8240003F0F4F90020BFF34F8FCF
:1051A000B0BD572801D932207047B0B5440900F08E
:1051B0001F05BFF34F8F03F0D4F940F220110120F7
:1051C000C4F20701A84051F8242022EA000041F867
:1051D000240003F0D6F90020BFF34F8FB0BD40F29A
:1051E00020134209C4F2070300F01F0053F82220E5
:1051F0000123C240002023EA02020A7070475728A8
:105200000DD0A0F15A01062924BFA0F152010429B2
:1052100005D33D2824BFA0F145010A2918D8B0B50F
:10522000440900F01F05BFF34F8F03F09AF940F2D5
:105230002C110120C4F20701A84051F8242010438A
:1052400041F8240003F09DF90020BFF34F8FB0BD5B
:105250003220704757280DD0A0F15A01062924BFEB
:10526000A0F15201042905D33D2824BFA0F1450136
:105270000A2919D8B0B5440900F01F05BFF34F8FB4
:1052800003F06FF940F22C110120C4F20701A8408D
:1052900051F8242022EA000041F8240003F071F9BB
:1052A0000020BFF34F8FB0BD32207047172801D9BF
:1052B0003220704710B50446BFF34F8F03F051F909
:1052C00040F248110120C4F20701A0400A681043CF
:1052D000086003F056F90020BFF34F8F10BD48B1AE
:1052E00040F20811C4F207010A68520304D40968A5
:1052F000C90F02E033207047012101700020704780
:1053000048B140F20C11C4F207010A68520304D4F8
:105310000968C90F02E033207047012101700020A5
:105320007047F0B583B041F600410546C0F64E61C6
:1053300088424FF00000019001D935246DE001A8AA
:1053400000F0A6F90446002867D1019940F208163A
:1053500041F26057A942C4F20706C2F210072FD0EB
:105360007868A84213D1306840F4802030603068FB
:1053700040F48030306003F0F4F807F10C0207CA03
:10538000B060F1603261706C20F0010015E03868A7
:10539000A84245D1306840F480203060306840F445
:1053A0008030306003F0DDF807F10C0207CAB0600E
:1053B000F1603261706C40F00100706403F0E1F85C
:1053C000B8680024029420B3706CC00606D403F0C1
:1053D000C8F841F26050C2F210000BE002A800F0E1
:1053E00057F90446A8B903F0BCF8706C40F01000FF
:1053F000706402A80068B968B0FBF1F00021CFF634
:10540000F07101EB0050F1680843F06003F0B9F867
:10541000002407F032FD07F0F9FC204603B0F0BD90
:10542000284600F009F804460028F2D1C8E708B180
:1054300000F02EB9332070472DE9F04186B041F2DB
:1054400060580022C2F21008054603A804920C46D8
:105450000192CDE90222D8F8001002AA04AB009014
:10546000284600F003FA08B116265FE001A800F014
:10547000C7FAAC420AD2D8F80C00012101EBD07077
:10548000B5FBF0F000F041FB064600E0002640F2DC
:1054900008174FF6FF71C4F20707386840F4802000
:1054A0003860386840F400203860386840F4803054
:1054B00038603868029A8843039940EA4230049A77
:1054C00040EA011010433860386820F480303860BA
:1054D00042F212703968002903D40138FAD111263A
:1054E00021E006BB03F03DF808F10C0207CAB860E2
:1054F000F9603A6103F045F83868AC424FF00006B5
:1055000020F4802038600ED305A8059600F0C0F87E
:1055100040B90598B968012202EBD171B0FBF1F0F6
:1055200000F0F3FA064601A800F08DFA304606B006
:10553000BDE8F08170B586B04BF280210546C0F61B
:10554000E66188424FF00000019001D935241BE04C
:1055500001A800F068F80446B0B90198A84212D03A
:1055600041F26056C2F210067068A8420FD140F2B4
:105570000C10C4F20700016841F480210160016849
:1055800041F4803101600024204606B070BD002047
:105590003168CDE90400CDE9020004A803AA05ABF7
:1055A0000090284600F062F908B11624ECE740F2BA
:1055B0000C1502A8C4F2070500F022FA28684FF67D
:1055C000FF7140F480202860286840F400202860A3
:1055D000286840F4803028602868039A884304993A
:1055E00040EA4230059A40EA0110104328602868DA
:1055F00020F48030286042F212702968002903D418
:105600000138FAD1112400E0002402F0AAFF306929
:10561000A86002F0B6FF286820F48020286002A865
:1056200000F011FAB0E720B380B541F2605140F2CA
:105630000C12C2F21001C4F20702096813680029B3
:1056400004BF45F60021C0F26221DB0313D4D2F877
:1056500000E0136813F00F0C126812D0CEF3081399
:10566000C2F3423259430CFA02F2B1FBF2F20021CA
:1056700009E033210AE046F600420021C0F2DC22B4
:1056800001E0162100220260BDE880400846704714
:1056900020B380B541F2605C40F20811C2F2100CF8
:1056A000C4F20701DCF800200B68002A04BF45F6AD
:1056B0000022C0F262225B0312D4D1F800E00B6832
:1056C00013F00F0C096819D0CEF30813C1F342315F
:1056D0005A430CFA01F1B2FBF1F20DE0332112E072
:1056E000496CDCF80430002B04BF46F60043C0F2DE
:1056F000DC23C90708BF1A46002101E01621002259
:105700000260BDE880400846704710B582B004468C
:1057100000284FF00000019011D001A8FFF7B8FF5A
:1057200070B940F210100199C4F20700012200681C
:1057300002EBD070B1FBF0F02060002000E03320DD
:1057400002B010BD2DE9F04182B0054663284FF04C
:105750000000009001D9322018E00C4641B10190C0
:1057600001A8FFF795FF28B16846FFF791FF0CE00D
:1057700033200BE040F210186846C4F20708019F7E
:10578000D8F80060FFF784FF18B1162002B0BDE81A
:10579000F081291F5F2900F26080012000EBD670A4
:1057A000B7FBF0F0DFE801F04A4A4A4A36363636AF
:1057B000363636363636363636363636363B3B3B7A
:1057C0003B3B3B3B3B3B3B3B3B3B3B3B3B3B40401F
:1057D00040404040404040404040404040403030E9
:1057E00030303030303030303030303030303030B9
:1057F0003059595959595959595959595959595942
:10580000595959595959594FD8F80010012202EBEA
:10581000D1710EE0D8F80010C1F3401108E0D8F8BB
:105820000010C1F3801103E0D8F80010C1F3C011DB
:105830000131B0FBF1F020600020A7E7D8F800109C
:10584000C1F30011F4E7D8F83C00C00608D441F2D7
:105850006050C2F21000006803E00020206095E76D
:105860000098D8F80410C1F30251E1E72DE9F047A0
:105870004BF28026471EC0F6E666DDF820E0B2FA5D
:1058800082F4B742B3FA83F64FEA54174FEA56163A
:105890004FF000050C4647EA0607BEFA8EF64FF0B9
:1058A000350C38BF012500294FEA561618BF0124D0
:1058B0002C4057EA060518BF4FF0330C002C4FF070
:1058C000350608BFB446002D67D1002C65D04DF6D3
:1058D0008367C4F21B37A1FB07144DF25161A0FB93
:1058E0000775C0F2DC114FEA944A884202D24FF0A9
:1058F000200C12E04AF6A141C0F2B931884202D22E
:105900004FF0100C09E045F641114FF0040CC0F2C5
:105910007371884238BF4FF0080CA00D0121BAEB1B
:10592000001F18BF01EB9450B0EBD44F21D8A90C45
:105930004FF4FA750CFB01F84FF47A7100FB05F691
:10594000E50C08FB00F705F1010900FB01F4B7FBCA
:10595000FAF505FB0AF1B14203D3A14201D88F4207
:105960000AD0013006F5FA768145474404F57A7489
:10597000EDD14FF0940C10E0ACF104011F2905D8D3
:105980004DF61807C0F20017795800E0FF214FF0DC
:10599000000C11601860CEF800506046BDE8F0873A
:1059A000092801D93B20704711F00E0F0BD040F2AF
:1059B00000420001C4F207021358194341F00101EB
:1059C00011500020704732207047092801D93B2030
:1059D000704711F00E0F11D040F200430001C4F2E5
:1059E0000703CA436FF0010C12F00E0F08BF2CEA38
:1059F0000102195811401950002070473220704799
:105A0000F8B180B540F2004E41F2E84C0021C4F2FA
:105A1000070EC2F2100C00235EF8212002F00102F2
:105A20004CF801205EF8212022F001024EF82120DE
:105A30005CF80120043128291344EDD103600020D3
:105A400080BD33207047C8B10068A8B141F2E84C6E
:105A500040F200420020C2F2100CC4F207025CF8CF
:105A6000003052F82010002B18BF41F0010142F81D
:105A7000201004302828F2D10020704733207047CE
:105A8000A0F15F0111F1030F08D8462806D3A0F159
:105A9000520111F1090F3CBF32207047F0B581B0BF
:105AA0006FF00301470901EAD00400F01F06BFF3BD
:105AB0004F8F02F056FD04250120C4F2070500FABD
:105AC00006F645F8276002F05CFD42F2127061595B
:105AD000314203D00138FAD1112000E00020BFF399
:105AE0004F8F01B0F0BD4EF60C51BFF34F8FCEF289
:105AF00000010422C0F2FA52086800F4E060024398
:105B000020200A60BFF34F8F704741F60041C0F676
:105B10004E61884201D935207047B0B54DF683619A
:105B200042F2C502C4F21B3148F20004A0FB01019D
:105B30000123C4F21804880C00EB401081B2C9089C
:105B400051434FF47A720D0D6A43824218BF03EB42
:105B5000115502F006FD42F240002564C4F219001E
:105B6000056002F00EFD206CA8420ED044F2391000
:105B7000C5F25440206002F0F4FC256402F001FDFF
:105B80004BF6C660CAF6AB3020600020B0BD51B104
:105B90000422C4F20A0210B1012806D104321068AE
:105BA000086000207047332070473A207047012971
:105BB00005D051B90421C4F20A01086003E00421B0
:105BC000C4F20A014860002070473A2070470C2157
:105BD0000020C4F20A010A6842F001020A6070471C
:105BE000B0B10068C10711D0C0F3C00100F47F520A
:105BF00000F0360008440021C4F20A0140EA8200A5
:105C000008304864086840F00400086000207047CD
:105C100033207047C8B180B503684FF0010EDAB287
:105C200040F2200CD905C4F20A0C0EFA02F269D532
:105C3000DCF800101143CCF800104178890706D435
:105C4000DCF83C1021EA020305E033207047DCF861
:105C50003C1041EA0203CCF83C304178C90604D438
:105C6000DCF8341021EA020303E0DCF8341041EAE6
:105C70000203CCF834304178890604D4DCF83810BB
:105C800021EA020303E0DCF8381041EA0203CCF811
:105C900038304178490604D4DCF82C1021EA02039C
:105CA00003E0DCF82C1041EA0203CCF82C304178F8
:105CB000090604D4DCF8301021EA020303E0DCF822
:105CC000301041EA0203CCF830304178090704D49F
:105CD000DCF8101021EA020303E0DCF8101041EABE
:105CE0000203CCF810304178490704D4DCF80C10DA
:105CF00021EA020303E0DCF80C1041EA0203CCF8CD
:105D00000C300368D90305D4DCF804009043CCF8C8
:105D1000040010E0DCF804101143CCF80410807883
:105D2000800703D4DCF80800904302E0DCF80800A8
:105D30001043CCF80800002080BD30B10021C4F22F
